:100000000C942A001895000018950000189500001F
:10001000189500001895000018950000189500002C
:10002000189500001895000018950000189500001C
:10003000189500001895000018950000189500000C
:1000400018950000189500001895000018950000FC
:10005000189500008FE58DBFC8E3E0E14E2E84E0E7
:100060008EBFD4E0F4E05F2EA89584B7082E877F7A
:1000700084BF88E1992781BD91BDEEEFF3E0A0E652
:10008000B0E088278D933197E9F783E389B980E061
:1000900080BD88E18AB9662483E389B980E080BDA8
:1000A00059987CE37ABB7EEB77BB7FE674BB7EEF2F
:1000B00071BB0E94220A9498DA98DB98DC98DD9A4A
:1000C00096989798A898AE9AAD98A99AE8EEF0E01D
:1000D00080E40E94700A58E0C895802D0E946A0A48
:1000E00031965A95C9F704C00103070F0703012091
:1000F000ECE0F1E088E40E94700A58E0C895802D99
:100100000E946A0A31965A95C9F704C010181C1E3D
:100110001C181020E0E3F1E080E50E94700A58E02E
:10012000C895802D0E946A0A31965A95C9F704C075
:1001300020201F0E04202020E4E5F1E088E50E9445
:10014000700A58E0C895802D0E946A0A31965A9527
:10015000C9F704C02020040E1F202020E8E7F1E0AA
:1001600080E60E94700A58E0C895802D0E946A0AB5
:1001700031965A95C9F704C001010105091F080409
:1001800078940E9464050E94070A8CE00E94700A1D
:100190008FE711E00E94160AECEBF7E10E94000ADB
:1001A0008FEB17E00E94160AECECF7E10E94000AC0
:1001B000E1E0F0E00E94190A0E94070A80E08093C3
:1001C0008B028FE711E00E94160AE2EDF7E10E9430
:1001D000000A8FEB11E00E94160AE4EEF7E10E949C
:1001E000000A9F990C940E0182E390E00E949D0A00
:1001F0009F9BFECF81E0809360028FE190E0A1E6BB
:10020000B2E08D939C9388E080936302A5E7B2E00F
:10021000E6EFF7E10E94BE0A0C944A01CF990C94D4
:100220002B0182E390E00E949D0ACF9BFECF82E0EB
:10023000809360028FEF90E0A1E6B2E08D939C93F3
:1002400084E080936302A5E7B2E0E6E0F8E10E9473
:10025000BE0A0C944A01CE990C94480182E390E0C6
:100260000E949D0ACE9BFECF83E0809360028FEFB9
:1002700091E0A1E6B2E08D939C9384E080936302C9
:10028000A5E7B2E0E6E1F8E10E94BE0A0C944A015B
:100290000C94F1008CE00E94700A0E94070A8FE71C
:1002A00011E00E94160AA5E7B2E00E94FA098FEB5E
:1002B00011E00E94160AE6E2F8E10E94000A9F9906
:1002C0000C94CD0282E390E00E949D0A9F9BFECF9A
:1002D0000E94070A8DE00E94700A80E090E0A4E688
:1002E000B2E08D939C9381E0D2018C9381E00E94D7
:1002F000B80A0E948705229681E00E94B40A8FEB1B
:1003000011E00E94160A82E00E946A0AE8E3F8E11E
:100310000E94000A83E00E946A0AE8E3F8E10E9472
:10032000000A80E00E946A0AE8E3F8E10E94000AFD
:1003300081E00E946A0AE8E3F8E10E94000A84E092
:100340000E946A0AECE3F8E10E94000A8FE715E0D8
:100350000E94160A80E080938A0280E080938702E0
:100360009F990C94DA0182E390E00E949D0A9F9B82
:10037000FECFA4E6B2E00D911C91003050E01507CD
:1003800011F40C94DA01A4E6B2E00E94930981E032
:10039000D2018C9381E00E94B80A0E9487052296C0
:1003A00081E00E94B40A80E0809387028FE715E025
:1003B0000E94160ACF990C94070282E390E00E94F3
:1003C0009D0ACF9BFECFA1E6B2E04D915C91A4E6E1
:1003D000B2E00D911C910417150711F40C94F4016F
:1003E000A4E6B2E00E948C0981E0D2018C9381E006
:1003F0000E94B80A0E948705229681E00E94B40AF2
:1004000080E0809387028FE715E00E94160ACE995C
:100410000C942D0282E390E00E949D0ACE9BFECFB9
:1004200000918702003011F00C941C02809163024D
:10043000809387020C942102A7E8B2E08C9181504E
:100440008C9305E040918702040FA8E8B2E00C937A
:100450008FE7109188020E94160AC9990C945402E1
:1004600082E390E00E949D0AC99BFECF4091630207
:1004700000918702041711F00C94430280E08093EE
:1004800087020C944802A7E8B2E08C918F5F8C93AE
:1004900005E040918702040FA8E8B2E00C938FE7D3
:1004A000109188020E94160AC8990C94B50282E342
:1004B00090E00E949D0AC89BFECF00918702003009
:1004C00011F00C946A0281E080938A020C94C502B8
:1004D0000C94B5020091630240918702041BA9E8C5
:1004E000B2E00C9380918902A4E6B2E0AD90BD9099
:1004F000A0E6B0E0AA0DBB1D0E94D80A0E94CE0A59
:100500000C900822689409F4E894882780F9809573
:1005100080FB80918902A4E6B2E0AD90BD90A0E698
:10052000B0E0AA0DBB1D0E94D80A0E94CE0A0C9012
:1005300016F0092201C0082A0C9281E0D2018C93A6
:1005400081E00E94B80A0E948705229681E00E94FD
:10055000B40A05E040918702040FA8E8B2E00C93CA
:100560008FE7109188020E94160AB0990C94C3027A
:1005700082E390E00E949D0AB09BFECF81E08093D1
:100580008A020C94C5020C94B00100918A020130D9
:1005900011F00C94CD020C945805CF990C943303B0
:1005A00082E390E00E949D0ACF9BFECF80E0809383
:1005B0008A028FEB11E00E94160AE0E4F8E10E9443
:1005C000000A9F990C94F70282E390E00E949D0A32
:1005D0009F9BFECF8FEB11E00E94160AE2E5F8E147
:1005E0000E94000A0E94C00781E080938A02CF998E
:1005F0000C94210382E390E00E949D0ACF9BFECFE2
:100600008FEB11E00E94160AE4E6F8E10E94000A6E
:100610000E94BF06E1E0F0E00E94190A8FEB11E0B2
:100620000E94160AE6E7F8E10E94000AB099FECFA0
:1006300082E390E00E949D0AB09BFECF81E0809310
:100640008A0200918A02013011F00C9429030C9463
:100650002B030C94D60200918A02013011F00C9405
:1006600033030C945805CE990C94A00380E080933A
:100670008A0280E080938B0282E390E00E949D0AD0
:10068000CE9BFECF0E94070A8FE711E00E94160A58
:10069000A5E7B2E00E94FA0980E090E0A4E6B2E0AB
:1006A0008D939C93A1E6B2E04D915C91A4E6B2E0FB
:1006B0000D911C910417150718F011F00C9481038B
:1006C0000E94D1050E94180682E0D2018C9381E03D
:1006D0000E94B80A0E948705229681E00E94B40A0F
:1006E00000916002013011F00C947A0384E690E0EE
:1006F0000E949D0AA4E6B2E00E948C0910F40C94BA
:100700005203E1E0F0E00E94190A0E94070A8FE715
:1007100011E00E94160AA5E7B2E00E94FA098FEBE9
:1007200011E00E94160AE8E8F8E10E94000AB09978
:100730000C94A00382E390E00E949D0AB09BFECF40
:10074000C9990C943E0580E080938A0280E08093F2
:100750008B0282E390E00E949D0AC99BFECF8FEB43
:1007600011E00E94160AEAE9F8E10E94000AC8991D
:100770000C94280582E390E00E949D0AC89BFECF5E
:1007800080E080938C0280E090E0A4E6B2E08D935C
:100790009C93A1E6B2E04D915C91A4E6B2E00D918C
:1007A0001C910417150718F011F00C94F80482E05E
:1007B000D2018C9381E00E94B80A0E94870522969C
:1007C00081E00E94B40A0E94D10580E080938602F5
:1007D00000918602073018F011F00C94F10480911A
:1007E0008602A4E6B2E0AD90BD90A0E6B0E0AA0D0E
:1007F000BB1D0E94D80A0E94CE0A0C900822689461
:1008000009F4E89416F00C94E90480918602D20170
:100810008C9381E00E94B80A0E945406229681E0DF
:100820000E94B40AA998EF93FF93E0E1F0E00E94E0
:10083000910AFF91EF91949ADD98EF93FF93ECE882
:10084000F1E00E94910AFF91EF91A99A81E090E076
:100850000E949D0AA998EF93FF93ECE8F1E00E94B3
:10086000910AFF91EF91DD9A9498EF93FF93E0E165
:10087000F0E00E94910AFF91EF9184E090E00E94E5
:100880009D0AADE8B2E0BA93AA9380918602D201A4
:100890008C9381E00E94B80A0E947006249681E041
:1008A0000E94B40A00918D02003011F00C94E9040A
:1008B000A998EF93FF93E0E1F0E00E94910AFF9185
:1008C000EF91949ADD98EF93FF93ECE8F1E00E94AA
:1008D000910AFF91EF91A99A84E090E00E949D0A0D
:1008E000A998EF93FF93ECE8F1E00E94910AFF9141
:1008F000EF91DD9A9498EF93FF93E0E1F0E00E948E
:10090000910AFF91EF9180E190E00E949D0AADE88D
:10091000B2E0BA93AA9380918602D2018C9381E0CF
:100920000E94B80A0E947006249681E00E94B40AD0
:1009300000918D02003011F00C94E904A998EF9316
:10094000FF93E0E1F0E00E94910AFF91EF91949A09
:10095000DD98EF93FF93ECE8F1E00E94910AFF919C
:10096000EF91A99A84E190E00E949D0AA998EF93E3
:10097000FF93ECE8F1E00E94910AFF91EF91DD9A7C
:100980009498EF93FF93E0E1F0E00E94910AFF91C9
:10099000EF9180E590E00E949D0AADE8B2E0BA9345
:1009A000AA9380918602D2018C9381E00E94B80ABA
:1009B0000E947006249681E00E94B40A00918D0284
:1009C000003011F00C94E904ACE8B2E08C918F5F38
:1009D0008C93A6E8B2E08C918F5F8C9310F40C940A
:1009E000E803A4E6B2E00E948C0910F40C94C90359
:1009F000E1E0F0E00E94190A8FEB11E00E94160A74
:100A0000ECEAF8E10E94000AECE8F2E0A8EFB3E0BB
:100A10000E943A0B0E94F809E4EBF8E10E94000AF8
:100A20008FEB1FE00E94160AECEBF8E10E94000A2F
:100A3000B099FECF82E390E00E949D0AB09BFECF6A
:100A400081E080938B0281E080938A020C943E05C2
:100A5000B0990C94340582E390E00E949D0AB09B0B
:100A6000FECF81E080938A0200918A02013011F06A
:100A70000C943C050C943E050C94B70300918B023A
:100A8000013011F00C9446050C945805B0990C9463
:100A9000560582E390E00E949D0AB09BFECF0E9423
:100AA000070A81E080938B020C9458050C945F0137
:100AB00000918B02013011F00C9460050C946205DA
:100AC0000C944A010C94DE0080E090E0A8EBB2E0C8
:100AD0008D939C93A8EBB2E00D911C91003052E0F5
:100AE000150718F011F00C94860580E0A8EBB2E031
:100AF000AD90BD90A0E6B0E0AA0DBB1D8C93A8EB15
:100B0000B2E00E948C0910F40C946A050895A4E6E2
:100B1000B2E0AD90BD90A0E6B0E0AA0DBB1D8C91F7
:100B200080936602E4E6F2E0A7E6B2E00E942A0BB8
:100B3000E7E6F2E0A8EFB3E00E94C30BE8EFF3E0D2
:100B4000A7E6B2E01127222704E033270E94DE0A3D
:100B5000A881B9812C9111E00E940C0AA7E6B2E0AD
:100B60000E94FA09E0ECF8E10E94000AACE6B2E06B
:100B7000E6E6F2E00E94990BACE6B2E00E94D80BE8
:100B8000EA2FFB2F009163023197E01BF0400FEF3B
:100B9000ACE6B2E00E94CF0BACE6B2E00E94FA09EC
:100BA000089581E00E94B80A00916002033011F0BC
:100BB0000C94E505A5E6B2E00C9100FB16F00C9450
:100BC000E405959A0C94E505959880E0A881B98193
:100BD0008C93A881B9810C91073018F011F00C9416
:100BE0001006A881B9818C91A4E6B2E00E94D80ACF
:100BF0000E94CE0A0C900822689409F4E89416F03A
:100C00000C940506969A0C9406069698A89AA898AD
:100C1000A881B9818C918F5F8C9310F40C94E905B5
:100C2000979A979881E0481A80E0580A229608958A
:100C300081E00E94B80AA998AE98AE9A87E0A88190
:100C4000B9818C93A881B9814C9100E0041718F008
:100C500011F00C944D06A3E3B0E08C9184FBA881C5
:100C6000B9818C91A4E6B2E0AD90BD90A0E6B0E071
:100C7000AA0DBB1D0E94D80A0E94CE0A0C9016F045
:100C8000092201C0082A0C92AD9AAD98A881B981B9
:100C90000E94880910F00C942206A99A81E0481A53
:100CA00080E0580A22960895A881B9818C9180FB32
:100CB000ABE3B0E08C9182F98C93A881B9818C91DF
:100CC00081FBABE3B0E08C9183F98C93A881B9816F
:100CD0008C9182FBABE3B0E08C9184F98C93089506
:100CE00081E00E94B80A81E00E94B80A81E00E9477
:100CF000B80AA998AE98AE9A87E0AC81BD818C9372
:100D0000AC81BD814C9100E0041718F011F00C94F7
:100D1000A506A3E3B0E08C9184FBAC81BD818C91EE
:100D2000A881B9810E94D80A0E94CE0A0C9016F0C0
:100D3000092201C0082A0C92AD9AAD98AC81BD8100
:100D40000E94880910F00C948006A99AAE81BF8198
:100D50008C91A881B9810E94D80A0E94CE0A0C9079
:100D60000822689409F4E894A885B985882780F951
:100D70008C9383E0481A80E0580A2696089581E013
:100D80000E94B80A82E00E94B80A81E00E94B80A74
:100D900081E00E94B80A81E00E94B80A83E00E94C4
:100DA000B80A81E00E94B80A81E00E94B80AA1E670
:100DB000B2E00D911C910F5F1F4FAC85BD850D9367
:100DC0001C93AC85BD850D911C9140E150E00E94C3
:100DD000BD09AC85BD854D935C93AC85BD858C917B
:100DE000AA85BB858C9380E090E0A4E6B2E08D9369
:100DF0009C9381E0AE85BF858C93AA85BB854C9181
:100E0000AE85BF850C91041718F011F00C94B4074F
:100E1000AEE8B2E0E2ECF8E10E94BE0A80E1AA810D
:100E2000BB818C93A7E6B2E0E4E6F2E00E94820B7D
:100E300081E0E7E6F2E002E00A93AD81BE810E9424
:100E4000C80BAA81BB810C910F93AC81BD810E941C
:100E5000A90B402F0F91040FAA81BB810C9383E053
:100E6000E7E6F2E002E00A93AD81BE810E94C80B82
:100E7000AA81BB810C910F93AC81BD810E94A90B0B
:100E8000402F0F91040FAA81BB810C93E7E6F2E09B
:100E9000AEE8B2E00E94D7090E94C30BAEE8B2E010
:100EA0000E94D709E6ECF8E10E94BE0A81E0A8851D
:100EB000B9858C93A885B9850C91003118F011F093
:100EC0000C949207A4E6B2E0AD90BD90A0E6B0E02D
:100ED000AA0DBB1D8C91AE81BF818C93AC81BD816D
:100EE000EE81FF810E94800BAA81BB810C91AE81B3
:100EF000BF814C91040FAA81BB810C93EC81FD81D1
:100F0000AEE8B2E00E94D7090E94C30BA4E6B2E0AB
:100F10000E948C09A885B9858C918F5F8C9310F401
:100F20000C945A07AA81BB818C9180958C93AA81DD
:100F3000BB818C918F5F8C93AC81BD81EA81FB81F9
:100F40000E94800BAEE8B2E00E94E409AC81BD8152
:100F50000E94E4090E94F109AE85BF858C918F5FE4
:100F60008C9310F40C94FD06EAECF8E10E94EA0977
:100F70000E94F1098BE0481A80E0580A60960895B3
:100F800081E00E94B80A81E00E94B80A81E00E94D4
:100F9000B80A82E00E94B80A82E00E94B80A81E0A2
:100FA0000E94B80A81E00E94B80A81E00E94B80A53
:100FB00083E00E94B80A85E00E94B80A0E94DE0918
:100FC000AA89BB898C93AA89BB890C910A3311F039
:100FD0000C94DE070E94DE09AA89BB898C93AA893A
:100FE000BB898C91AA81BB818D9388278C930E94A9
:100FF000DE09AA89BB898C93AA89BB898C91AA81B5
:10100000BB810E94D7098D9388278C93AA81BB81CD
:101010000E94A90BAE85BF850C93AE85BF858C91D0
:10102000AE81BF818C93A881B98188278C930E945F
:10103000DE09AA89BB898C93AA89BB898C91AA8174
:10104000BB818D9388278C930E94DE09AA89BB8976
:101050008C93AA89BB898C91AA81BB810E94D709F4
:101060008D9388278C93AA81BB810E94A90BAC81A8
:10107000BD810C93AE81BF810C91AC81BD814C913F
:10108000040FAE81BF810C93EA81FB81A881B981F5
:101090000E94C30B0E94DE09AA89BB898C93AA898E
:1010A000BB898C91AA81BB818D9388278C930E94E8
:1010B000DE09AA89BB898C93AA89BB898C91AA81F4
:1010C000BB810E94D7098D9388278C93AA81BB810D
:1010D0000E94A90BAC81BD810C93AE81BF810C91A4
:1010E000AC81BD814C91040FAE81BF810C93EA812C
:1010F000FB81A881B9810E94D7090E94C30BA881F6
:10110000B9810E94A90BAC85BD850D931C930E94EB
:10111000DE09AA89BB898C93AA89BB898C91AA8193
:10112000BB818D9388278C930E94DE09AA89BB8995
:101130008C93AA89BB898C91AA81BB810E94D70913
:101140008D9388278C93AA81BB810E94A90BA885C7
:10115000B9850C93AE81BF810C91A885B9854C915E
:10116000040FAE81BF810C93A885B9850C91003026
:1011700011F00C946E0981E0A889B9898C93AE8531
:10118000BF854C91A889B9890C91041718F011F00A
:101190000C9423090E94DE09AA89BB898C93AA8931
:1011A000BB898C91AA81BB818D9388278C930E94E7
:1011B000DE09AA89BB898C93AA89BB898C91AA81F3
:1011C000BB810E94D7098D9388278C93AA81BB810C
:1011D0000E94A90BAC81BD810C93AE81BF810C91A3
:1011E000AC81BD814C91040FAE81BF810C93AC8565
:1011F000BD850D911C9101501040AA85BB850D93B2
:101200001C93AA85BB850D911C91A889B9894D9124
:101210005527040F151FAA85BB850D931C93AC8120
:10122000BD818C91AA85BB85AD90BD90A0E6B0E054
:10123000AA0DBB1D8C93A889B9898C918F5F8C9363
:1012400010F40C94BF080E94DE09AA89BB898C9314
:10125000AA89BB898C91AA81BB818D9388278C93A5
:101260000E94DE09AA89BB898C93AA89BB898C91CB
:10127000AA81BB810E94D7098D9388278C93AA816C
:10128000BB810E94A90BAC81BD810C93AE81BF8153
:101290008C9180958C93AE81BF818C918F5F8C9364
:1012A000AE81BF814C91AC81BD810C91041711F4CA
:1012B0000C946C098FEB11E00E94160AE6EDF8E140
:1012C0000E94000AB099FECF82E390E00E949D0A3E
:1012D000B09BFECF0C9482090C9480098FEB11E037
:1012E0000E94160AE8EEF8E10E94000AB099FECFCB
:1012F00082E390E00E949D0AB09BFECF0C9482098D
:101300000C94DE0782E1481A80E0580A649608953A
:101310008C9181508C930895ED91FC91EF5FFF4F7C
:10132000FC93EE930895ED91FC91E150F040FC9315
:10133000EE93089500FC10D0089503D01ED001F85C
:10134000F9CF0024E89457FF02C009D0689400F850
:101350000BD010F80124089502D009D008955095BB
:1013600040954F5F5F4F0895E89417FF08950095EB
:1013700010950F5F1F4F68940895352F242FE89420
:10138000452B11F468940895512F402F0027112701
:1013900080E1440F551F001F111F021B130B4160FA
:1013A00018F4020F131F4E7F8A9599F708958F93B3
:1013B0008D918823E9F711978F9108955F9BFECF58
:1013C0008CB10895A8EFB3E08D91882311F00CD073
:1013D000FBCF08950E94C40A802D11F005D0FACFEA
:1013E00008958DE001D08AE05D9BFECF8CB9089511
:1013F000A8EFB3E08D91882311F06CD0FBCF089556
:101400000E94C40A802D11F065D0FACF089581E0C2
:1014100067D015D080E864C08FE7213039F08FEBBA
:10142000223021F08FE8233009F08FEC810F0C94EB
:10143000700A88EE93E081D03197D9F7089583E060
:1014400099277BC08AEF90E00E949D0AB99ABA9AC8
:10145000BB9ABC9A8A9A8B9A939885E090E00E94F6
:101460009D0A9298C198C298C39AC49A929AEF938F
:10147000FF93E4ECF0E00E94910AFF91EF919298C3
:1014800059D0929AEF93FF93E4ECF0E00E94910A16
:10149000FF91EF9192984ED0929AEF93FF93E4ECE4
:1014A000F0E00E94910AFF91EF91929843D0C49886
:1014B000929AEF93FF93E4ECF0E00E94910AFF917F
:1014C000EF91929837D088E20BD08EE009D086E079
:1014D00007D00895939A829505D004D02BD0089513
:1014E0009398F9CF859510F4C49A01C0C498859556
:1014F00010F4C39A01C0C398859510F4C29A01C034
:10150000C298859510F4C19A01C0C198929AEF9340
:10151000FF93E4ECF0E00E94910AFF91EF91929822
:1015200008953197F1F70895689462F80895E89462
:1015300062F8089581E090E000C0EF93FF93EE27FA
:10154000E82BE92B31F0E0EDF7E03197F1F7019767
:10155000D1F7FF91EF91089501911191219130817F
:101560000895481A590A0895481A8827580A08956C
:1015700099275A924A92480E591E08950E94C40A09
:101580000D920020D9F70895C8953196002008954E
:10159000813618F08B3708F48F7D089591E0882309
:1015A00021F08894991F8A95E9F7892F90950895DD
:1015B000883018F011968850FBCF08952E2E3F2EBC
:1015C000992781918D3209F093958823D1F79A95C7
:1015D000E22DF32D112361F0091718F011F0101B03
:1015E00001C0191B28F021F080E28D931A95E9F7CC
:1015F00080818D3219F48D93319604C0222311F02D
:101600008BE28D93091738F031F0091B21F080E34C
:101610008D930A95E9F781918D938823E1F7332320
:1016200051F0EA2FFB2F319633958E9182933A95A4
:10163000E1F78EE28C930895000F111F221F331FD4
:10164000089500951095209530950F5F1F4F2F4FEF
:101650003F4F0895019110810FC00E94AC0A0EC047
:101660000E94AC0A10C00191108117FF05C03FEF26
:101670002FEF04C0008111272227332737FF03C033
:10168000E0DF8DE28D93CF92DF92EF92AA24BB240C
:10169000CC24DD24EE2440E2EAE0FF2755E093E38A
:1016A0008081890F87FD9F7083FD907F891B8193C7
:1016B0005A95A9F7C1DFAA1CBB1CCC1CDD1CEE1C73
:1016C0004A9551F7E894EFE0FF2782910CD0EB3078
:1016D000E0F71EF068948A2D0AD088278D93EF904A
:1016E000DF90CF900895982F829501D0892F8F7029
:1016F000805D26F0803309F4089568948D930895F1
:1017000041E003C042E001C044E0E40F8827F81F35
:101710008291982F829506D0892F04D04A95C1F7DF
:101720000C94C00B8F708A3008F0895F805D8D93B8
:10173000089541E0E40F8827F81F829138E098E18E
:10174000880F991F9D933A95D1F74A95B1F70C945C
:10175000C00B00271127222733278D91882379F08A
:101760006BDF6ADF69DF68DF13DF815408F4895FAC
:10177000865F080F8827181F281F381FEECF08958F
:1017800088278D93089581918D938823E1F708959B
:1017900009919191992359F08A95D9F731970023AE
:1017A00031F081918D930A958823C9F70895E8CF88
:1017B0008FEF83959D919923E1F7089550524F4DF6
:1017C0002050726F6772616D6D65720076312E31D7
:1017D000000053656C656374202020313D3734313F
:1017E00038380000323D37343238372020333D3727
:1017F00034353731000037343138382053656C6563
:101800006374656400003734533238372053656C95
:101810006563746564003734533537312053656C24
:10182000656374656400454454205043205244204D
:101830005052472045580000202000002045580005
:101840004C6F616420536176652020202020202089
:10185000000057616974696E6720666F7220646169
:101860007461000053656E64696E6720746F205068
:101870004320202000004845582066696C6520738D
:10188000656E74204558000052656164696E67207A
:10189000646F6E65202045580000505247206368F1
:1018A00069703F20454E2F4558200000446F6E65FB
:1018B0002C200000204552522020200045580000D6
:1018C0003D003A313000303000003A3030303030B6
:1018D000303031464600436865636B73756D206533
:1018E000727220204558000046696C65206C6F615B
:0A18F00064656420202045580000C4
:00000001FF
