:100000000C942A001895000018950000189500001F
:10001000189500001895000018950000189500002C
:10002000189500001895000018950000189500001C
:10003000189500001895000018950000189500000C
:1000400018950000189500001895000018950000FC
:10005000189500008FE58DBFC8E3E0E14E2E84E0E7
:100060008EBFD4E0F4E05F2EA89584B7082E877F7A
:1000700084BF88E1992781BD91BDEEEFF3E0A0E652
:10008000B0E088278D933197E9F783E389B980E061
:1000900080BD88E18AB9662483E389B980E080BDA8
:1000A00059987CE37ABB7EEB77BB7FE674BB7EEF2F
:1000B00071BB0E94D70B9498DA98DB98DC98DD9A94
:1000C00096989798A898AE9AAD98A99AE8EEF0E01D
:1000D00080E40E94250C58E0C895802D0E941F0CDA
:1000E00031965A95C9F704C00103070F0703012091
:1000F000ECE0F1E088E40E94250C58E0C895802DE2
:100100000E941F0C31965A95C9F704C010181C1E86
:100110001C181020E0E3F1E080E50E94250C58E077
:10012000C895802D0E941F0C31965A95C9F704C0BE
:1001300020201F0E04202020E4E5F1E088E50E9445
:10014000250C58E0C895802D0E941F0C31965A95B9
:10015000C9F704C02020040E1F202020E8E7F1E0AA
:1001600080E60E94250C58E0C895802D0E941F0C47
:1001700031965A95C9F704C001010105091F080409
:1001800078940E940B070E94BC0B8CE00E94250C07
:100190008FE711E00E94CB0BE4E5FBE10E94B50B79
:1001A0008FEB17E00E94CB0BE4E6FBE10E94B50B5E
:1001B000E2E0F0E00E94CE0B8FE711E00E94CB0B53
:1001C000EAE6FBE10E94B50B8FEB11E00E94CB0B3E
:1001D000ECE7FBE10E94B50BE3E0F0E00E94CE0B00
:1001E0000E94BC0B80E080938B028FE711E00E949D
:1001F000CB0BEEE8FBE10E94B50B8FEB11E00E9408
:10020000CB0BE0EAFBE10E94B50B9F990C94220115
:1002100082E390E00E94520C9F9BFECF81E080938E
:1002200060028FE190E0A1E6B2E08D939C9388E0BC
:1002300080936302A5E7B2E0E2EBFBE10E94730C5E
:100240000C945E01CE990C943F0182E390E00E94F1
:10025000520CCE9BFECF82E0809360028FEF90E045
:10026000A1E6B2E08D939C9384E080936302A5E7BE
:10027000B2E0E2ECFBE10E94730C0C945E01C899C1
:100280000C945C0182E390E00E94520CC89BFECF6C
:1002900083E0809360028FEF91E0A1E6B2E08D935E
:1002A0009C9384E080936302A5E7B2E0E2EDFBE17A
:1002B0000E94730C0C945E010C9405018CE00E946A
:1002C000250C0E94BC0B8FE711E00E94CB0BA5E729
:1002D000B2E00E94AF0B8FEB11E00E94CB0BE2EE7D
:1002E000FBE10E94B50B9F990C94E10282E390E040
:1002F0000E94520C9F9BFECF0E94BC0B8DE00E947F
:10030000250C80E090E0A4E6B2E08D939C9381E020
:10031000D2018C9381E00E946D0C0E942E072296E0
:1003200081E00E94690C8FEB11E00E94CB0B82E010
:100330000E941F0CE4EFFBE10E94B50B83E00E94DA
:100340001F0CE4EFFBE10E94B50B80E00E941F0C44
:10035000E4EFFBE10E94B50B81E00E941F0CE4EF8B
:10036000FBE10E94B50B84E00E941F0CE8EFFBE16B
:100370000E94B50B8FE715E00E94CB0B80E08093C5
:100380008A0280E0809387029F990C94EE0182E3B9
:1003900090E00E94520C9F9BFECFA4E6B2E00D912C
:1003A0001C91003050E0150711F40C94EE01A4E606
:1003B000B2E00E94480B81E0D2018C9381E00E9460
:1003C0006D0C0E942E07229681E00E94690C80E04D
:1003D000809387028FE715E00E94CB0BCF990C9496
:1003E0001B0282E390E00E94520CCF9BFECFA1E65D
:1003F000B2E04D915C91A4E6B2E00D911C9104171E
:10040000150711F40C940802A4E6B2E00E94410B17
:1004100081E0D2018C9381E00E946D0C0E942E0736
:10042000229681E00E94690C80E0809387028FE72A
:1004300015E00E94CB0BCE990C94410282E390E030
:100440000E94520CCE9BFECF00918702003011F02B
:100450000C94300280916302809387020C943502E1
:10046000A7E8B2E08C9181508C9305E0409187021F
:10047000040FA8E8B2E00C938FE7109188020E9465
:10048000CB0BC9990C94680282E390E00E94520C55
:10049000C99BFECF4091630200918702041711F0BF
:1004A0000C94570280E0809387020C945C02A7E8CA
:1004B000B2E08C918F5F8C9305E040918702040F2E
:1004C000A8E8B2E00C938FE7109188020E94CB0B52
:1004D000C8990C94C90282E390E00E94520CC89B18
:1004E000FECF00918702003011F00C947E0281E073
:1004F00080938A020C94D9020C94C9020091630281
:1005000040918702041BA9E8B2E00C938091890214
:10051000A4E6B2E0AD90BD90A0E6B0E0AA0DBB1D90
:100520000E948D0C0E94830C0C900822689409F4A0
:10053000E894882780F9809580FB80918902A4E661
:10054000B2E0AD90BD90A0E6B0E0AA0DBB1D0E9448
:100550008D0C0E94830C0C9016F0092201C0082A11
:100560000C9281E0D2018C9381E00E946D0C0E947C
:100570002E07229681E00E94690C05E040918702D7
:10058000040FA8E8B2E00C938FE7109188020E9454
:10059000CB0BB0990C94D70282E390E00E94520CEE
:1005A000B09BFECF81E080938A020C94D9020C9418
:1005B000C40100918A02013011F00C94E1020C9404
:1005C000FF06CF990C94470382E390E00E94520CFF
:1005D000CF9BFECF80E080938A028FEB11E00E94D8
:1005E000CB0BECEFFBE10E94B50B9F990C940B0336
:1005F00082E390E00E94520C9F9BFECF8FEB11E0B4
:100600000E94CB0BEEE0FCE10E94B50B0E94750945
:1006100081E080938A02CF990C94350382E390E0C5
:100620000E94520CCF9BFECF8FEB11E00E94CB0BB0
:10063000E0E2FCE10E94B50B0E947408E1E0F0E00A
:100640000E94CE0B8FEB11E00E94CB0BE2E3FCE1AA
:100650000E94B50BB099FECF82E390E00E94520C4D
:10066000B09BFECF81E080938A0200918A02013024
:1006700011F00C943D030C943F030C94EA0200919A
:100680008A02013011F00C9447030C94FF06CE99B6
:100690000C94B40380E080938A0280E080938B0204
:1006A00082E390E00E94520CCE9BFECF0E94BC0BD6
:1006B0008FE711E00E94CB0BA5E7B2E00E94AF0BE1
:1006C00080E090E0A4E6B2E08D939C93A1E6B2E0D6
:1006D0004D915C91A4E6B2E00D911C9104171507B1
:1006E00018F011F00C9495030E9486070E94CD0724
:1006F00082E0D2018C9381E00E946D0C0E942E0753
:10070000229681E00E94690C00916002013011F094
:100710000C948E0384E690E00E94520CA4E6B2E0B2
:100720000E94410B10F40C946603E1E0F0E00E949B
:10073000CE0B0E94BC0B8FE711E00E94CB0BA5E70C
:10074000B2E00E94AF0B8FEB11E00E94CB0BE4E410
:10075000FCE10E94B50BB0990C94B40382E390E0E5
:100760000E94520CB09BFECFC9990C94C00480E04B
:1007700080938A0280E080938B0280E090E0ACE876
:10078000B2E08D939C9382E390E00E94520CC99B4F
:10079000FECF0E94BC0B80E090E0A4E6B2E08D9317
:1007A0009C93A1E6B2E04D915C91A4E6B2E00D917C
:1007B0001C910417150718F011F00C947D04E4E661
:1007C000F2E0A7E6B2E00E94E30CE7E6F2E0A8EF71
:1007D000B3E00E947B0DE8EFF3E0A7E6B2E011275B
:1007E000222704E033270E94970C8FEB11E00E9430
:1007F000CB0BA7E6B2E00E94AF0BE6E5FCE10E945E
:10080000B50B0E948607A998AE98AE9A0091630234
:1008100041E0041BA6E8B2E00C934091860200E0A0
:10082000041718F011F00C945F04A3E3B0E08C916E
:1008300084FBACE6B2E00E94930C8D9388278C93E6
:10084000ACE6B2E00E94AF0B81E00E946D0C80919B
:100850008602A4E6B2E0AD90BD90A0E6B0E0AA0D9D
:10086000BB1D0E948D0C0E94830C0C900822689482
:1008700009F4E894A881B9810E94930C8D9388278C
:100880008C93ECE6F2E0A881B9810E94980D0FB636
:1008900081E0481A80E0580A22960FBE11F40C94A9
:1008A0005504ACE8B2E00E94410BAD9AAD9880913E
:1008B000860281508093860210F00C940D04A99A50
:1008C00081E0D2018C9381E00E946D0C0E942E0782
:1008D000229681E00E94690C00916002013011F0C3
:1008E0000C94760484E690E00E94520CA4E6B2E0F8
:1008F0000E94410B10F40C94D103E1E0F0E00E945F
:10090000CE0B0E94BC0B8FE711E00E94CB0BA5E73A
:10091000B2E00E94AF0B8FEB11E00E94CB0BACE872
:10092000B2E00D911C91003050E0150711F00C94CD
:100930009F04E8E5FCE10E94B50B0C94AF04E6E6E9
:10094000FCE10E94B50BECE8F2E0A8EFB3E00E94F6
:10095000EC0C0E94AD0BEEE6FCE10E94B50B8FEBB8
:1009600010E10E94CB0BE6E7FCE10E94B50BB099C9
:100970000C94C00482E390E00E94520CB09BFECF26
:10098000C8990C94D50680E080938A0280E0809319
:100990008B0282E390E00E94520CC89BFECF8FEB4B
:1009A00011E00E94CB0BE8E7FCE10E94B50BC8996F
:1009B0000C94BF0682E390E00E94520CC89BFECFCD
:1009C0008FEB11E00E94CB0BEAE8FCE10E94B50B33
:1009D00080E090E0ACE8B2E08D939C9380E090E002
:1009E000A4E6B2E08D939C93A1E6B2E04D915C91B8
:1009F000A4E6B2E00D911C910417150718F011F050
:100A00000C946E0682E0D2018C9381E00E946D0C02
:100A10000E942E07229681E00E94690C0E948607A0
:100A200080E08093860200918602073018F011F072
:100A30000C94670680918602A4E6B2E0AD90BD906A
:100A4000A0E6B0E0AA0DBB1D0E948D0C0E94830C95
:100A50000C900822689409F4E89416F00C942A0685
:100A6000AEE8B2E0BA93AA9380918602D2018C9349
:100A700081E00E946D0C0E942508249681E00E946E
:100A8000690C00918E02003011F00C942A068091BE
:100A90008602D2018C9381E00E946D0C0E940908AD
:100AA000229681E00E94690CA998EF93FF93E0E100
:100AB000F0E00E94460CFF91EF91949ADD98EF933D
:100AC000FF93ECE8F1E00E94460CFF91EF91A99AA8
:100AD00081E090E00E94520CA998EF93FF93ECE81C
:100AE000F1E00E94460CFF91EF91DD9A9498EF930C
:100AF000FF93E0E1F0E00E94460CFF91EF9184E06B
:100B000090E00E94520CAEE8B2E0BA93AA938091B2
:100B10008602D2018C9381E00E946D0C0E94250810
:100B2000249681E00E94690C00918E02003011F041
:100B30000C942A06A998EF93FF93E0E1F0E00E945D
:100B4000460CFF91EF91949ADD98EF93FF93ECE8B8
:100B5000F1E00E94460CFF91EF91A99A84E090E0A9
:100B60000E94520CA998EF93FF93ECE8F1E00E94E9
:100B7000460CFF91EF91DD9A9498EF93FF93E0E19B
:100B8000F0E00E94460CFF91EF9180E190E00E941E
:100B9000520CAEE8B2E0BA93AA9380918602D201D9
:100BA0008C9381E00E946D0C0E942508249681E0C0
:100BB0000E94690C00918E02003011F00C942A06FC
:100BC000A998EF93FF93E0E1F0E00E94460CFF91BB
:100BD000EF91949ADD98EF93FF93ECE8F1E00E9497
:100BE000460CFF91EF91A99A84E190E00E94520C8B
:100BF000A998EF93FF93ECE8F1E00E94460CFF9177
:100C0000EF91DD9A9498EF93FF93E0E1F0E00E947A
:100C1000460CFF91EF9180E590E00E94520CAEE807
:100C2000B2E0BA93AA9380918602D2018C9381E0BC
:100C30000E946D0C0E942508249681E00E94690C98
:100C400000918E02003011F00C942A06ACE8B2E05C
:100C50000E94410B80918602A4E6B2E0AD90BD9067
:100C6000A0E6B0E0AA0DBB1D0E948D0C0E94830C73
:100C70000C900822689409F4E89416F40C945F062A
:100C800084E690E00E94520CAEE8B2E0BA93AA93D8
:100C900080918602D2018C9381E00E946D0C0E94AB
:100CA0002508249681E00E94690C00918E02013093
:100CB00011F00C945F06ACE8B2E00E94410BA6E88C
:100CC000B2E08C918F5F8C9310F40C941305A4E622
:100CD000B2E00E94410B10F40C94F404E1E0F0E067
:100CE0000E94CE0B8FEB11E00E94CB0BACE8B2E080
:100CF0000D911C91003050E0150711F00C94860600
:100D0000ECE9FCE10E94B50B0C94A706ACE8B2E05C
:100D10000D911C91043650E015070CF402C00C94A0
:100D2000A306EAEAFCE10E94B50BECE8F2E0A8EFCA
:100D3000B3E00E94EC0C0E94AD0BEEE6FCE10E94D9
:100D4000B50B0C94A706E2EBFCE10E94B50B8FEB10
:100D50001FE00E94CB0BE2ECFCE10E94B50BB099C6
:100D6000FECF82E390E00E94520CB09BFECF81E068
:100D700080938B0281E080938A020C94D506B0990F
:100D80000C94CB0682E390E00E94520CB09BFECF05
:100D900081E080938A0200918A02013011F00C9464
:100DA000D3060C94D5060C94D70400918B02013025
:100DB00011F00C94DD060C94FF06C8990C94ED0616
:100DC00082E390E00E94520CC89BFECF0E94BC0BB5
:100DD00081E080938B020C94FF06B0990C94FD0681
:100DE00082E390E00E94520CB09BFECF0E94BC0BAD
:100DF00081E080938B020C94FF060C9473010091A8
:100E00008B02013011F00C9407070C9409070C9425
:100E10005E010C94F20080E090E0A9EBB2E08D93CB
:100E20009C93A9EBB2E00D911C91003052E01507A4
:100E300018F011F00C942D0780E0A9EBB2E0AD9012
:100E4000BD90A0E6B0E0AA0DBB1D8C93A9EBB2E06B
:100E50000E94410B10F40C9411070895A4E6B2E02F
:100E6000AD90BD90A0E6B0E0AA0DBB1D8C91809323
:100E70006602E4E6F2E0A7E6B2E00E94E30CE7E6F1
:100E8000F2E0A8EFB3E00E947B0DE8EFF3E0A7E605
:100E9000B2E01127222704E033270E94970CA88193
:100EA000B9812C9111E00E94C10BA7E6B2E00E942B
:100EB000AF0BE6E5FCE10E94B50BACE6B2E0E6E67E
:100EC000F2E00E94510DACE6B2E00E94900DEA2FD4
:100ED000FB2F009163023197E01BF0400FEFACE66F
:100EE000B2E00E94870DACE6B2E00E94AF0BA88191
:100EF000B9812C911FE00E94C10BE6E6F2E0A8EF59
:100F0000B3E00E94380D0E94AD0B089581E00E946D
:100F10006D0C00916002033011F00C949A07A5E665
:100F2000B2E00C9100FB16F00C949907959A0C9482
:100F30009A07959880E0A881B9818C93A881B9819E
:100F40000C91073018F011F00C94C507A881B981F5
:100F50008C91A4E6B2E00E948D0C0E94830C0C9050
:100F60000822689409F4E89416F00C94BA07969A4B
:100F70000C94BB079698A89AA898A881B9818C91DF
:100F80008F5F8C9310F40C949E07979A979881E04A
:100F9000481A80E0580A2296089581E00E946D0C5C
:100FA000A998AE98AE9A87E0A881B9818C93A88160
:100FB000B9814C9100E0041718F011F00C9402086C
:100FC000A3E3B0E08C9184FBA881B9818C91A4E665
:100FD000B2E0AD90BD90A0E6B0E0AA0DBB1D0E94AE
:100FE0008D0C0E94830C0C9016F0092201C0082A77
:100FF0000C92AD9AAD98A881B9810E943D0B10F07A
:101000000C94D707A99A81E0481A80E0580A2296E2
:101010000895A881B9818C9180FBABE3B0E08C91FD
:1010200082F98C93A881B9818C9181FBABE3B0E00C
:101030008C9183F98C93A881B9818C9182FBABE36D
:10104000B0E08C9184F98C93089581E00E946D0C3E
:1010500081E00E946D0C81E00E946D0CA998AE9811
:10106000AE9A87E0AC81BD818C93AC81BD814C91FF
:1010700000E0041718F011F00C945A08A3E3B0E054
:101080008C9184FBAC81BD818C91A881B9810E9437
:101090008D0C0E94830C0C9016F0092201C0082AC6
:1010A0000C92AD9AAD98AC81BD810E943D0B10F0C1
:1010B0000C943508A99AAE81BF818C91A881B98121
:1010C0000E948D0C0E94830C0C900822689409F4F5
:1010D000E894A885B985882780F98C9383E0481A1D
:1010E00080E0580A2696089581E00E946D0C82E007
:1010F0000E946D0C81E00E946D0C81E00E946D0CDD
:1011000081E00E946D0C83E00E946D0C81E00E94E2
:101110006D0C81E00E946D0CA1E6B2E00D911C9176
:101120000F5F1F4FAC85BD850D931C93AC85BD85AE
:101130000D911C9140E150E00E94720BAC85BD8581
:101140004D935C93AC85BD858C91AA85BB858C93B2
:1011500080E090E0A4E6B2E08D939C9381E0AE85C0
:10116000BF858C93AA85BB854C91AE85BF850C91BC
:10117000041718F011F00C946909AFE8B2E0E6EC3E
:10118000FCE10E94730C80E1AA81BB818C93E4E6B0
:10119000F2E0A7E6B2E00E943A0D81E0E7E6F2E075
:1011A00002E00A93AD81BE810E94800DAA81BB81BD
:1011B0000C910F93AC81BD810E94610D402F0F9166
:1011C000040FAA81BB810C9383E0E7E6F2E002E022
:1011D0000A93AD81BE810E94800DAA81BB810C91D2
:1011E0000F93AC81BD810E94610D402F0F91040FC0
:1011F000AA81BB810C93E7E6F2E0AFE8B2E00E947F
:101200008C0B0E947B0DAFE8B2E00E948C0BEAECE5
:10121000FCE10E94730C81E0A885B9858C93A885B8
:10122000B9850C91003118F011F00C944709A4E62F
:10123000B2E0AD90BD90A0E6B0E0AA0DBB1D8C91D0
:10124000AE81BF818C93EE81FF81AC81BD810E9414
:10125000380DAA81BB810C91AE81BF814C91040FE6
:10126000AA81BB810C93EC81FD81AFE8B2E00E94C2
:101270008C0B0E947B0DA4E6B2E00E94410BA88576
:10128000B9858C918F5F8C9310F40C940F09AA810F
:10129000BB818C9180958C93AA81BB818C918F5F4F
:1012A0008C93EA81FB81AC81BD810E94380DAFE84F
:1012B000B2E00E94990BAC81BD810E94990B0E9403
:1012C000A60BAE85BF858C918F5F8C9310F40C9428
:1012D000B208EEECFCE10E949F0B0E94A60B8BE093
:1012E000481A80E0580A6096089581E00E946D0CCB
:1012F00081E00E946D0C81E00E946D0C82E00E94F2
:101300006D0C82E00E946D0C81E00E946D0C81E00A
:101310000E946D0C81E00E946D0C83E00E946D0CB8
:1013200085E00E946D0C0E94930BAA89BB898C9367
:10133000AA89BB890C910A3311F00C9493090E947D
:10134000930BAA89BB898C93AA89BB898C91AA81AA
:10135000BB818D9388278C930E94930BAA89BB89AC
:101360008C93AA89BB898C91AA81BB810E948C0B2A
:101370008D9388278C93AA81BB810E94610DAE85D5
:10138000BF850C93AE85BF858C91AE81BF818C9358
:10139000A881B98188278C930E94930BAA89BB8965
:1013A0008C93AA89BB898C91AA81BB818D93882754
:1013B0008C930E94930BAA89BB898C93AA89BB89C1
:1013C0008C91AA81BB810E948C0B8D9388278C9372
:1013D000AA81BB810E94610DAC81BD810C93AE815D
:1013E000BF810C91AC81BD814C91040FAE81BF8156
:1013F0000C93EA81FB81A881B9810E947B0D0E9438
:10140000930BAA89BB898C93AA89BB898C91AA81E9
:10141000BB818D9388278C930E94930BAA89BB89EB
:101420008C93AA89BB898C91AA81BB810E948C0B69
:101430008D9388278C93AA81BB810E94610DAC811A
:10144000BD810C93AE81BF810C91AC81BD814C916B
:10145000040FAE81BF810C93EA81FB81A881B98121
:101460000E948C0B0E947B0DA881B9810E94610DA6
:10147000AC85BD850D931C930E94930BAA89BB89F3
:101480008C93AA89BB898C91AA81BB818D93882773
:101490008C930E94930BAA89BB898C93AA89BB89E0
:1014A0008C91AA81BB810E948C0B8D9388278C9391
:1014B000AA81BB810E94610DA885B9850C93AE817C
:1014C000BF810C91A885B9854C91040FAE81BF8175
:1014D0000C93A885B9850C91003011F00C94230B66
:1014E00081E0A889B9898C93AE85BF854C91A88984
:1014F000B9890C91041718F011F00C94D80A0E94C5
:10150000930BAA89BB898C93AA89BB898C91AA81E8
:10151000BB818D9388278C930E94930BAA89BB89EA
:101520008C93AA89BB898C91AA81BB810E948C0B68
:101530008D9388278C93AA81BB810E94610DAC8119
:10154000BD810C93AE81BF810C91AC81BD814C916A
:10155000040FAE81BF810C93AC85BD850D911C91AC
:1015600001501040AA85BB850D931C93AA85BB85AD
:101570000D911C91A889B9894D915527040F151F0C
:10158000AA85BB850D931C93AC81BD818C91AA85E6
:10159000BB85AD90BD90A0E6B0E0AA0DBB1D8C93BD
:1015A000A889B9898C918F5F8C9310F40C94740A7C
:1015B0000E94930BAA89BB898C93AA89BB898C91C1
:1015C000AA81BB818D9388278C930E94930BAA8953
:1015D000BB898C93AA89BB898C91AA81BB810E940B
:1015E0008C0B8D9388278C93AA81BB810E94610DFF
:1015F000AC81BD810C93AE81BF818C9180958C9321
:10160000AE81BF818C918F5F8C93AE81BF814C91F5
:10161000AC81BD810C91041711F40C94210B8FEB5C
:1016200011E00E94CB0BEAEDFCE10E94B50BB099F2
:10163000FECF82E390E00E94520CB09BFECF0C9450
:10164000370B0C94350B8FEB11E00E94CB0BECEEBB
:10165000FCE10E94B50BB099FECF82E390E00E94BE
:10166000520CB09BFECF0C94370B0C94930982E183
:10167000481A80E0580A649608958C9181508C93A2
:101680000895ED91FC91EF5FFF4FFC93EE93089569
:10169000ED91FC91E150F040FC93EE93089500FC35
:1016A00010D0089503D01ED001F8F9CF0024E8949B
:1016B00057FF02C009D0689400F80BD010F801243D
:1016C000089502D009D00895509540954F5F5F4F1F
:1016D0000895E89417FF0895009510950F5F1F4F28
:1016E00068940895352F242FE894452B11F46894BD
:1016F0000895512F402F0027112780E1440F551FD7
:10170000001F111F021B130B416018F4020F131F5F
:101710004E7F8A9599F708958F938D918823E9F7E5
:1017200011978F9108955F9BFECF8CB10895A8EF1C
:10173000B3E08D91882311F00CD0FBCF08950E9467
:10174000790C802D11F005D0FACF08958DE001D0ED
:101750008AE05D9BFECF8CB90895A8EFB3E08D9130
:10176000882311F06CD0FBCF08950E94790C802D56
:1017700011F065D0FACF089581E067D015D080E8E8
:1017800064C08FE7213039F08FEB223021F08FE8F1
:10179000233009F08FEC810F0C94250C88EE93E038
:1017A00081D03197D9F7089583E099277BC08AEFDC
:1017B00090E00E94520CB99ABA9ABB9ABC9A8A9A43
:1017C0008B9A939885E090E00E94520C9298C19871
:1017D000C298C39AC49A929AEF93FF93E4ECF0E014
:1017E0000E94460CFF91EF91929859D0929AEF93F4
:1017F000FF93E4ECF0E00E94460CFF91EF91929889
:101800004ED0929AEF93FF93E4ECF0E00E94460CE6
:10181000FF91EF91929843D0C498929AEF93FF93DF
:10182000E4ECF0E00E94460CFF91EF91929837D0E3
:1018300088E20BD08EE009D086E007D00895939A15
:10184000829505D004D02BD008959398F9CF859533
:1018500010F4C49A01C0C498859510F4C39A01C0CD
:10186000C398859510F4C29A01C0C298859510F46A
:10187000C19A01C0C198929AEF93FF93E4ECF0E013
:101880000E94460CFF91EF91929808953197F1F7DD
:101890000895689462F80895E89462F8089581E0E4
:1018A00090E000C0EF93FF93EE27E82BE92B31F097
:1018B000E0EDF7E03197F1F70197D1F7FF91EF9164
:1018C000089501911191219130810895481A590A82
:1018D0000895481A8827580A089599275A924A92D3
:1018E000480E591E08950E94790C0D920020D9F7D8
:1018F0000895C895319600200895813618F08B37E9
:1019000008F48F7D089591E0882321F08894991F31
:101910008A95E9F7892F90950895883018F01196E7
:101920008850FBCF089580E30EF4839508952E2E02
:101930003F2E992781918D3209F093958823D1F715
:101940009A95E22DF32D112361F0091718F011F08B
:10195000101B01C0191B28F021F080E28D931A950D
:10196000E9F780818D3219F48D93319604C02223DA
:1019700011F08BE28D93091738F031F0091B21F03B
:1019800080E38D930A95E9F781918D938823E1F7A0
:10199000332351F0EA2FFB2F319633958E918293AA
:1019A0003A95E1F78EE28C930895000F111F221FE4
:1019B000331F089500951095209530950F5F1F4FA8
:1019C0002F4F3F4F0895019110810FC00E94610C6D
:1019D0000EC00E94610C10C00191108117FF05C05C
:1019E0003FEF2FEF04C0008111272227332737FF55
:1019F00003C0E0DF8DE28D93CF92DF92EF92AA24B5
:101A0000BB24CC24DD24EE2440E2EAE0FF2755E0AD
:101A100093E38081890F87FD9F7083FD907F891BF1
:101A200081935A95A9F7C1DFAA1CBB1CCC1CDD1CF5
:101A3000EE1C4A9551F7E894EFE0FF2782910BD016
:101A4000EB30E0F71EF068948A2D09D04D93EF90AB
:101A5000DF90CF900895982F829501D0892F8F70B5
:101A6000805D26F0803309F4089568948D9308957D
:101A700041E003C042E001C044E0E40F8827F81FC2
:101A80008291982F829506D0892F04D04A95C1F76C
:101A90000C94780D8F708A3008F0895F805D8D938B
:101AA000089541E0E40F8827F81F829138E098E11B
:101AB000880F991F9D933A95D1F74A95B1F70C94E9
:101AC000780D00271127222733278D91882379F05D
:101AD0006CDF6BDF6ADF69DF10DF815408F4895F38
:101AE000865F080F8827181F281F381FEECF08951C
:101AF00088278D93089581918D938823E1F7089528
:101B000009919191992359F08A95D9F7319700233A
:101B100031F081918D930A958823C9F70895E8CF14
:101B20008FEF83959D919923E1F70895689401C003
:101B3000E894AF93BF938D9116F0919103C00E94EA
:101B4000790C902D891718F011F48823A1F7BF9113
:101B5000AF91089550524F4D2050726F6772616D72
:101B60006D65720076312E3200007777772E6769C7
:101B7000746875622E636F6D202000002F4C617AAF
:101B8000617275732D4C2D6F2D6E2D67000053659E
:101B90006C656374202037342853295F5F5F000031
:101BA0003138382020203238372020203537312076
:101BB000000037343138382053656C6563746564D0
:101BC00000003734533238372053656C65637465D1
:101BD00064003734533537312053656C6563746561
:101BE000640045442050432052442056462050472C
:101BF0002078000020200000202078004C44205352
:101C00005620202020202020202020200000576166
:101C10006974696E6720666F722064617461000088
:101C200053656E64696E6720746F205043202020D6
:101C300000004845582066696C652073656E742005
:101C40002078000052656164696E6720646F6E657C
:101C50002020207800003D002A20566572696679B0
:101C6000204F4B202A004641494C2C2000002045A3
:101C7000525220202000780050524720636869703B
:101C80003F205945532F4E4F000020202020202078
:101C90002020202020202020202000002A2A20533D
:101CA000554343455353202A2A004661696C2C2032
:101CB00000004661696C3E3130302045525273213C
:101CC0000000207800003A313000303000003A3017
:101CD00030303030303031464600436865636B73D6
:101CE000756D2065727220202078000046696C6551
:0E1CF000206C6F616465642020202078000065
:00000001FF
